:100000000C94DD000C9405010C9405010C94050181
:100010000C9405010C9405010C9405010C94050148
:100020000C9405010C9405010C94FB160C946D17AF
:100030000C9405010C9405010C9405010C94050128
:100040000C9405010C9405010C9405010C94050118
:100050000C9405010C9405010C9405010C9470118D
:100060000C9405010C9483050C945D050C9405011A
:100070000C9405010C9405010C9405010C940501E8
:100080000C9405010C9405010C9405010C940501D8
:100090000C94720E0C9405010C9405010C9405014E
:1000A0000C9405010C9405010C940501CB0BCE0BAF
:1000B000BD0BC10BC50BEF0BEF0BEF0BD20BD60B30
:1000C000DA0BE00BE40BEF0BEA0B72756E2D62722C
:1000D000696467650A000A000A0000000000250044
:1000E00028002B002E00310004040404040304053E
:1000F00002020202040302020202060606060606C5
:1001000004040202020404040802011040804010AA
:10011000204080408008020401804020100201102D
:100120008010204040200000000200090F00000362
:100130000401000C000000000000000000000000AE
:100140000000000000080B00020202010009040088
:100150000001020200000524001001052401010134
:10016000042402060524060001070581031000404F
:1001700009040100020A0000000705020240000015
:10018000070583024000000403090412010002EF86
:1001900002014041234180000101020301417264D8
:1001A00075696E6F204C4C430041726475696E6FC7
:1001B0002059756E0000F11F1F1A11241FBECFEFCA
:1001C000DAE0DEBFCDBF12E0A0E0B1E0ECEEFBE490
:1001D00002C005900D92AA30B107D9F724E0AAE039
:1001E000B2E001C01D92A93DB207E1F710E0CCEDED
:1001F000D0E004C02197FE010E94D723CB3DD10758
:10020000C9F70E942D1A0C94E9250C940000FC01FA
:10021000918D828D981761F0828DDF01A80FB11D3D
:100220005D968C91928D9F5F9F73928F90E0089561
:100230008FEF9FEF0895FC01918D828D981731F01B
:10024000828DE80FF11D858D90E008958FEF9FEF6F
:100250000895FC01918D228D892F90E0805C9F4F45
:10026000821B91098F739927089585E493E00E947A
:10027000290121E0892B09F420E0822F0895FC0157
:10028000848DDF01A80FB11DA35ABF4F2C91848D1F
:1002900090E001968F739927848FA689B7892C9354
:1002A000A089B1898C9180648C93938D848D9813EF
:1002B00006C00288F389E02D80818F7D80830895B8
:1002C000EF92FF920F931F93CF93DF93EC0181E0A6
:1002D000888F9B8D8C8D981305C0E889F989808162
:1002E00085FD24C0F62E0B8D10E00F5F1F4F0F739E
:1002F0001127E02E8C8DE8120CC00FB607FCFACF48
:10030000E889F989808185FFF5CFCE010E943F0100
:10031000F1CF8B8DFE01E80FF11DE35AFF4FF08204
:100320000B8FEA89FB898081806207C0EE89FF8993
:100330006083E889F98980818064808381E090E02E
:10034000DF91CF911F910F91FF90EF900895CF9380
:10035000DF93EC01888D8823C9F0EA89FB898081CD
:1003600085FD05C0A889B9898C9186FD0FC00FB69F
:1003700007FCF5CF808185FFF2CFA889B9898C91E0
:1003800085FFEDCFCE010E943F01E7CFDF91CF91F6
:10039000089580E090E0892B29F00E9435018111B9
:1003A0000C9400000895CF93DF931F92CDB7DEB772
:1003B0006983DC01ED91FC910280F381E02D41E045
:1003C00050E0BE016F5F7F4F09950F90DF91CF9195
:1003D000089583E08093E9008091F200882319F06A
:1003E0008AE38093E8000895FC018485958597FD54
:1003F0000BC09FB7F89482E08093E9008091F200EF
:100400009FBF90E0019608959FB7F89482E0809393
:10041000E9008091F2009FBF90E008950F931F9331
:10042000FB01BA0180819181DC01ED91FC91028098
:10043000F381E02DA9010995F80191838083892B2F
:1004400019F080E090E002C08AEF9FEF1F910F91BA
:1004500008950895FB012785FC012787FB01268568
:10046000FC0126870895FC01878508958F929F924D
:10047000AF92BF92CF92DF92EF92FF920F931F93B2
:10048000CF93DF937C01EB016C0182E0C80ED11C9D
:100490004701E5E08E0E911C00E010E0F60141916D
:1004A0006F0150E060E070E02AE0CE010E949D19EB
:1004B0005C01E881F9810190F081E02D6EE2CE01CE
:1004C00009958A0D9B1D080F191FC814D90431F70F
:1004D000F701458150E060E070E02AE0CE010E9423
:1004E0009D19800F911FDF91CF911F910F91FF9068
:1004F000EF90DF90CF90BF90AF909F908F90089536
:100500007F928F929F92AF92BF92CF92DF92EF92A3
:10051000FF920F931F93CF93DF936C015B017A01DE
:1005200080910B01882309F46BC0809132028823EB
:1005300009F466C08091CF0480FF05C08091E0007F
:1005400082608093E000E70110E00AEF83E0982EDC
:1005500090E4792E2AE3822E209709F448C08FB7C1
:10056000F8949092E9009091E80095FF06C0909170
:10057000F200272D291B922F01C090E08FBF91110F
:100580000AC0015009F43CC061E070E080E090E0F6
:100590000E94A00FE1CF292F30E0C217D3070CF43F
:1005A0009C2F8FB7F8949092E9002091E80025FFE6
:1005B0001CC0292F30E0C21BD30BF501915020F055
:1005C00041914093F100FACFA20EB31E112319F00E
:1005D0008092E80009C09091E80095FD06C08092E5
:1005E000E80011E0209709F010E08FBFB5CF11119E
:1005F000B6CF5D9884E68093D0041E141F0444F0A7
:1006000081E090E0F6019383828380E090E001C076
:10061000C701DF91CF911F910F91FF90EF90DF9075
:10062000CF90BF90AF909F908F907F900895CF9381
:10063000DF931F92CDB7DEB7FC018485958597FDCA
:1006400005C02FEF3FEF358724870BC0CE01019601
:100650000E94240D019719F4898190E002C08FEF68
:100660009FEF0F90DF91CF9108950F931F93CF933A
:10067000DF931F92CDB7DEB78C01FC018485958591
:1006800097FF0EC0CE0101960E94240D019719F428
:10069000298130E002C02FEF3FEFF8013587248732
:1006A000F801848595850F90DF91CF911F910F916F
:1006B00008950E94D4254F925F926F927F92AF92DD
:1006C000BF92CF92DF92EF92FF920F931F93CF933F
:1006D000DF935901FB01C081D181CC82DD82EE82A2
:1006E000FF826A01E12CF12CEA14FB0429F10E943B
:1006F0006411688779878A879B87E881F9810680FA
:10070000F781E02DCE01099597FF1EC00E9464116C
:10071000488459846A847B84DC01CB01841995095F
:10072000A609B7094C805D806E807F808415950591
:10073000A605B70510F35701F801B182A082AB28D6
:1007400051F080E090E009C0F60181936F01FFEF66
:10075000EF1AFF0AC9CF8BEF9FEFDF91CF911F9167
:100760000F91FF90EF90DF90CF90BF90AF907F9070
:100770006F905F904F900895CF92DF92EF92FF922B
:10078000FB01C080D180E280F3800E946411A70148
:100790009601261B370B480B590BCA01B901FF9074
:1007A000EF90DF90CF9008950F931F93CF93DF9337
:1007B00000D000D0CDB7DEB78B0129833A834B83BD
:1007C0005C830E94641129813A814B815C81DC0148
:1007D000CB01820F931FA41FB51FF8018083918363
:1007E000A283B3830F900F900F900F90DF91CF9162
:1007F0001F910F910895AF92BF92CF92DF92EF9227
:10080000FF920F931F93CF93DF9300D0CDB7DEB746
:10081000FC0187858823B1F05A019B018CE689830E
:1008200086858A83C12CD12CE12CF12C8A0142E0EF
:1008300050E0BE016F5F7F4F848595850E94DA0F7F
:10084000C50102C080E090E00F900F90DF91CF9142
:100850001F910F91FF90EF90DF90CF90BF90AF90DE
:100860000895EF92FF920F931F93CF93DF93CDB72D
:10087000DEB728970FB6F894DEBF0FBECDBF7C0160
:100880008B016DE971E0CE0101964F8358870E947C
:10089000E61662E170E0CE0101960E942116D801B1
:1008A00012966C91CE0101960E94BA11CE0101966A
:1008B0000E94100DF8016381CE0101960E94BA11C9
:1008C000CE0101960E94100DD80114966C91CE01B4
:1008D00001960E94BA11CE0101960E94100DF801F6
:1008E0006581CE0101960E94BA11D701ED91FC916C
:1008F00069817A810684F785E02D4F815885C7018B
:1009000009958C01CE0101960E94A916C80128966E
:100910000FB6F894DEBF0FBECDBFDF91CF911F9110
:100920000F91FF90EF900895EF92FF920F931F9316
:10093000CF93DF937C01EB016CE871E085EF92E0EF
:100940000E940A1A05EF12E0D801ED91FC91D7013F
:1009500014964D915C9115976D917C910280F38175
:10096000E02DC801099567E971E0C8010E940A1AE3
:10097000D801ED91FC914C815D8168817981028083
:10098000F381E02DC80109956BE971E0C801DF91A1
:10099000CF911F910F91FF90EF900C940A1A4F92F4
:1009A0005F926F927F928F929F92AF92BF92CF92FF
:1009B000DF92EF92FF920F931F93CF93DF93CDB708
:1009C000DEB763970FB6F894DEBF0FBECDBF4B0105
:1009D00029013A01AD86BE86CF86D88AE98AFA8A8D
:1009E0000B8BADB6BEB6E888F988CA88DB88C9012A
:1009F00001962DB73EB7281B390B0FB6F8943EBFB2
:100A00000FBE2DBF0DB71EB70F5F1F4FA201B30161
:100A1000C8010E94D925F801E40DF51D1082F701E7
:100A2000EC0DFD1D1082D40112968C911297882333
:100A300059F01596ED91FC9116979601A701B80112
:100A40008D919C9109951DC0B801CE0107960E9419
:100A5000E616B701CE0101960E94E616D401139660
:100A6000ED91FC911497BE016F5F7F4FCE01079609
:100A70000995CE0101960E94A916CE0107960E9403
:100A8000A9160FB6F894BEBE0FBEADBE63960FB6E4
:100A9000F894DEBF0FBECDBFDF91CF911F910F91B4
:100AA000FF90EF90DF90CF90BF90AF909F908F908E
:100AB0007F906F905F904F9008951F920F920FB6A6
:100AC0000F9211242F933F934F935F936F937F93D4
:100AD0008F939F93AF93BF93EF93FF9385E493E03E
:100AE0000E943F01FF91EF91BF91AF919F918F9134
:100AF0007F916F915F914F913F912F910F900FBE1A
:100B00000F901F9018951F920F920FB60F921124FD
:100B10002F938F939F93EF93FF93E0915503F09161
:100B200056038081E0915B03F0915C0382FD12C06B
:100B3000908180915E038F5F8F7320915F03821796
:100B400051F0E0915E03F0E0EB5BFC4F958F8093FA
:100B50005E0301C08081FF91EF919F918F912F9152
:100B60000F900FBE0F901F901895FC01DC010D90A7
:100B70000020E9F71197BD016E1B7F0BCF0108958F
:100B8000EF92FF920F931F93CF93DF9300D000D08B
:100B900000D0CDB7DEB77C01E60EF71E8E159F059F
:100BA000D1F1DA01FC018191FE83ED8383FB99276A
:100BB00090F9F901908382958F7090E08D939C93CA
:100BC000AE014F5F5F4FB701CE0105960E94A20DA7
:100BD000009729F589819A81AB81BC810297A10593
:100BE000B105D9F4ED81FE81EE1AFF0A82E0E81624
:100BF000F10420F4F801118210820DC0808190E090
:100C0000982F88272181820F911DF801918380837D
:100C100080E090E004C08FEF01C088EF9FEF269640
:100C20000FB6F894DEBF0FBECDBFDF91CF911F91FD
:100C30000F91FF90EF900895CF93DF93EC018D819A
:100C40009E81DC01ED91FC910480F581E02D0995F8
:100C50001816190654F48D819E81DC01ED91FC91EA
:100C60000680F781E02D0995EACFDF91CF910895B5
:100C70008F929F92AF92BF92CF92DF92EF92FF92AC
:100C8000CF93DF93EC016B010E9464114B015C0177
:100C9000E12CF12C8D819E81DC01ED91FC9106808F
:100CA000F781E02D099597FF0FC00E946411DC01C8
:100CB000CB0188199909AA09BB098C159D05AE05B8
:100CC000BF0540F38FEF9FEFDF91CF91FF90EF9043
:100CD000DF90CF90BF90AF909F908F900895FC01D0
:100CE000238134812627022E2295207F2025032E62
:100CF000322F22952F700226269532272327220F86
:100D0000220F220F2025348323830895CF92DF9270
:100D1000EF92FF920F931F936801790100E010E0BA
:100D200020E030E00E94DA0F1F910F91FF90EF90CA
:100D3000DF90CF900895AF92BF92CF92DF92EF9263
:100D4000FF920F931F93CF93DF93CDB7DEB7279713
:100D50000FB6F894DEBF0FBECDBF5C019B0183E4EC
:100D600089835A834B83FB0101900020E9F7319777
:100D70008F01061B170BCC24C394D12CCE010796F0
:100D80007C0143E050E0BE016F5F7F4FD5011C96B0
:100D90008D919C911D970E94DA0F892BC1F18F8153
:100DA000F501868793E69C838D8301E010E09E0128
:100DB0002A5F3F4F42E050E0BE016C5F7F4FD5019C
:100DC0001C968D919C911D970E9486068E8188238A
:100DD00039F061E070E080E090E00E94A00FE5CF84
:100DE00081E0F50187870190F081E02D0488F58985
:100DF000E02DC501099581110DC0D501ED91FC9142
:100E00000288F389E02DC5010995F501168680E079
:100E100090E002C081E090E027960FB6F894DEBF24
:100E20000FBECDBFDF91CF911F910F91FF90EF903B
:100E3000DF90CF90BF90AF900895EF92FF920F9305
:100E40001F93CF93DF9300D01F92CDB7DEB7DC01A5
:100E50001F962C911F97222301F17C01ED91FC91AB
:100E60000480F581E02D0995892BC9F48CE48983F0
:100E7000F70186858A8301E010E09E012D5F3F4FD8
:100E800042E050E0BE016F5F7F4F848595850E94F0
:100E9000860681E09B81913019F080E001C081E0FD
:100EA0000F900F900F90DF91CF911F910F91FF90B6
:100EB000EF9008950F931F93CF93DF9300D01F926D
:100EC000CDB7DEB7FC0127852223A9F08CE6898304
:100ED00086858A836B8300E010E020E030E043E009
:100EE00050E0BE016F5F7F4F848595850E94860626
:100EF00081E090E002C080E090E00F900F900F90B2
:100F0000DF91CF911F910F910895EF92FF920F9370
:100F10001F93CF93DF9300D01F92CDB7DEB7FC01B4
:100F20002089211118C07C01118A8BE4898380E417
:100F30008B8386858A839F012E5E3F4F00E410E0FD
:100F400043E050E0BE016F5F7F4F848595850E942E
:100F50008606F701808B0F900F900F90DF91CF9155
:100F60001F910F91FF90EF900895CF93DF93EC01C5
:100F70000E9485078889882331F08989C80FD11D8F
:100F80008A8990E002C08FEF9FEFDF91CF910895A3
:100F9000CF92DF92EF92FF920F931F93CF93DF9345
:100FA000EC016A017B0100E010E08889811106C034
:100FB000CE010E9485078889882399F00F5F1F4F13
:100FC000898991E0980F998BFE01E80FF11D8289C4
:100FD000F70181937F0188898150888B0C151D054D
:100FE00020F3C801DF91CF911F910F91FF90EF90F7
:100FF000DF90CF900895CF93DF93EC010E94850797
:101000008889882359F08150888B898991E0980FCD
:10101000998BC80FD11D8A8990E002C08FEF9FEF96
:10102000DF91CF910895CF93DF93EC010E94850764
:10103000888990E0DF91CF910895EF92FF920F930E
:101040001F93CF93DF9300D0CDB7DEB77C01FC01B7
:101050008785882389F08AE6898386858A8300E0EC
:1010600010E020E030E042E050E0BE016F5F7F4FD3
:10107000848595850E948606F7011786108A118A55
:101080000F900F90DF91CF911F910F91FF90EF90F4
:1010900008952F923F924F925F926F927F928F921C
:1010A0009F92AF92BF92CF92DF92EF92FF920F93F7
:1010B0001F93CF93DF93CDB7DEB7E7970FB6F894C2
:1010C000DEBF0FBECDBF6EE971E085EF92E00E94FA
:1010D0000A1A0E945015882369F06AEA71E085EFC8
:1010E00092E00E940A1A68EE73E080E090E00E94AD
:1010F000A00FEFCF80910F049091100490932904DA
:1011000080932804DC01ED91FC91409113045091EF
:10111000140460911104709112040684F785E02D87
:10112000099597FDDACFE2E1F1E0DE015F968FE00D
:1011300001900D928A95E1F7A0900804B0900904FF
:1011400020900A048CEA91E00E94B5056F8F78A385
:1011500089A39AA381EC91E00E94B5056EA37FA3B9
:1011600088A799A78AEC91E00E94B5056AA77BA79A
:101170008CA79DA780912004882329F085E1E82E83
:1011800084E0F82E02C0E12CF12C20910B04309168
:101190000C0440910D0450910E04BCA2ABA22DA2F0
:1011A000FE017F96DE0150968FE001900D928A95A8
:1011B000E1F760914D0470914E04E0914F04F0917D
:1011C000500482E394E00995C501A0E0B0E080936B
:1011D000340490933504A0933604B0933704892BDC
:1011E0008A2B8B2B91F09501A8EEB3E00E94C022D0
:1011F0009B01AC0160914B0470914C04E0914F0451
:10120000F091500482E394E0099500913904109123
:101210003A04C0903D04D0903E04BD8AAC8A2E8A28
:10122000FE017096DE0111968FE001900D928A9575
:10123000E1F7488859888F88988C6B8C7C8CDFA666
:10124000CEA60C0D1D1D92012E5F3F4FC901A0E0DF
:10125000B0E09C01AD01265F3F4F4F4F5F4FE1145F
:10126000F10461F0F7016081718187819085860FBB
:10127000971F0496280F391F411D511D8114910499
:1012800079F0C4010296280F391F411D511D6114C8
:10129000710431F0C3010296280F391F411D511D01
:1012A0000C151D0509F4C4C0E0E1D601EC938EA530
:1012B0009FA501969FA78EA7B801CE018E960E948A
:1012C000620D009709F0B7C08BED91E00E94B50563
:1012D0009B01AC01B801CE018E960E944A0E009788
:1012E00009F0A9C0EEA5FFA5E017F10709F4A0C019
:1012F00084E08083EEA5FFA59F012F5F3F4F3FA7AE
:101300002EA7312C20FA31F8E114F10491F0689401
:1013100032F8D70114968C9114978370880F880F38
:10132000880F932D977E392E382A16968C9180FB44
:1013300035F88114910439F0689437F86114710418
:1013400011F0689436F82017310709F471C0318222
:101350008EA59FA501969FA78EA7A501B801CE01D6
:101360008E960E940C0E009709F065C05A82498241
:1013700029813A814B815C81B801CE018E960E9411
:101380004A0E009709F057C0E114F10419F437FE32
:1013900034C026C0F7012081318142815381B801D8
:1013A000CE018E960E944A0E009709F044C0D701E4
:1013B00017964D915C911897B801CE018E960E94B8
:1013C0000C0E0097C1F5F7012781308541855285C4
:1013D000B801CE018E960E94240E0097C1F22BC058
:1013E00099868886288539854A855B85B801CE012E
:1013F0008E960E944A0E0097F1F4832D807C803CEB
:1014000069F47D866C862C853D854E855F85B801A7
:10141000CE018E960E944A0E009769F48EA59FA574
:101420009C012C193D093FAB2EAB00E010E004C03D
:101430000FEF1FEF01C08C010115110509F06EC0FF
:101440008EA99FA90E94A812009709F063C01DAA47
:101450001CAA42E050E060E070E0CE01C4960E9419
:101460001B13009709F056C08CA99DA9029709F09B
:1014700053C0E0903B04F0903C0480913F04909175
:1014800040049BAB8AABE80EF91E8E159F0519F43C
:101490000FEF1FEF33C0FC018191FBABEAAB807F04
:1014A000803229F5AE01425D5F4FB701CE01C29691
:1014B0000E94A20D0097F1F48EA59FA5A8A9B9A935
:1014C0000297A105B105C1F4EAA9FBA9EE15FF0534
:1014D000F9F2CF0101969BAB8AAB8E159F05C1F245
:1014E000818190E0909355048093540407C007EFE6
:1014F0001FEF04C08C0102C008EF1FEF011511059A
:1015000069F48091540490915504892B39F006EFC9
:101510001FEF04C08C0102C007EF1FEF10935704A8
:1015200000935604012B19F010925304D6CD81E09C
:101530008093530460EE71E085EF92E00E940A1AF6
:101540006BE971E085EF92E00E940A1AE7960FB608
:10155000F894DEBF0FBECDBFDF91CF911F910F91E9
:10156000FF90EF90DF90CF90BF90AF909F908F90C3
:101570007F906F905F904F903F902F900895809153
:10158000E70390E02091E803821B9109089585ED1F
:101590008093BC008091BC0084FDFCCF1092E403DA
:1015A000089540916002262F30E0240F311D213232
:1015B0003105DCF42091E4032430C9F4FC0180E01F
:1015C00090E0861758F4309160022191DC01A25C12
:1015D000BD4FA30FB11D2C930196F3CF80916002F4
:1015E000680F6093600280E0089581E0089582E0D2
:1015F00008950895E091E8038091E703E81730F437
:10160000F0E0EF56FD4F808190E008958FEF9FEF5F
:1016100008959091E8038091E703981750F4E92F1B
:10162000F0E0EF56FD4F208130E09F5F9093E8039C
:1016300002C02FEF3FEFC9010895CF92DF92EF92E2
:10164000FF920F931F93CF93DF937C01262F972F49
:101650008A0180913302882391F0C62FD72F6E0123
:10166000C40ED51ECC15DD0571F06991D701ED9141
:10167000FC910190F081E02DC7010995F3CF642F13
:10168000822F0E94D10AC801DF91CF911F910F9143
:10169000FF90EF90DF90CF900895CF93DF931F924C
:1016A000CDB7DEB76983209133022223D1F0209198
:1016B000E503203240F021E030E0FC013383228357
:1016C00080E090E015C08091E603E82FF0E0EB5257
:1016D000FD4F998190838F5F8093E6038093E503AC
:1016E00005C061E0CE0101960E94D10A81E090E040
:1016F0000F90DF91CF9108953FB7F89480913A020F
:1017000090913B02A0913C02B0913D0226B5A89B6E
:1017100005C02F3F19F00196A11DB11D3FBFBA2F83
:10172000A92F982F8827820F911DA11DB11DBC01E3
:10173000CD0142E0660F771F881F991F4A95D1F7A8
:10174000089590E0FC01EA5DFE4F4491FC01E95FE1
:10175000FE4F2491FC01E851FF4F8491882309F446
:101760004CC04423E1F150E0FA013197EF30F1052C
:10177000B0F5EA5AFF4F0C94D723909180009F77E1
:1017800007C0909180009F7D03C090918000977F5B
:101790009093800024C094B59F7702C094B59F7D3C
:1017A00094BD1DC0909190009F7707C090919000CC
:1017B0009F7D03C090919000977F909390000FC001
:1017C0009091C0009F7703C09091C0009F7D90933F
:1017D000C00005C09091C200977F9093C200E82F8F
:1017E000F0E0EE0FFF1FE652FF4FA591B4918FB7C7
:1017F000F894EC912E2B2C938FBF0895382F2091C5
:10180000E50390913402213208F049C08091E4034D
:101810008111FCCF42E04093E4033093E3033FEFB8
:101820003093D4021092D3022093D202A5EDB2E0FD
:1018300042EB52E0FA013E2F341B321718F43D916F
:101840003193F9CF1092B1022091B102990F922BEE
:101850009093B1029091E203913061F41092E2030F
:101860009091B1029093BB009091BC0093FDF8CF92
:1018700095EC01C095EE9093BC009091E4039230FA
:10188000E1F39091D4029F3F79F08091D4028032AD
:1018900041F08091D402803331F084E005C081E0D2
:1018A00003C082E001C083E01092E6031092E503DA
:1018B000109233020895682F89EE93E00C944D0B3B
:1018C000CF9391E0909333029DE190933402109274
:1018D000E6031092E503C82FCF7DC83519F486E0E2
:1018E00090E009C0C93519F487E090E004C0CA351A
:1018F00021F488E090E00E945B0C81E00E94FE0BE6
:1019000081E0809333021092E6031092E503809108
:10191000E4038111FCCF81E08093E4038093E3032F
:101920009FEF9093D4021092D3021092D202809330
:10193000B1028091B1028A638093B1028091E20387
:10194000813061F41092E2038091B1028093BB0078
:101950008091BC0083FDF8CF85EC01C085EE8093BB
:10196000BC008091E4038130E1F38091D3028111C6
:1019700003C08091D30201C081E0A2EBB2E021E973
:1019800032E0F9019E2F921B981718F49D919193C4
:10199000F9CF1092E8038093E703882331F089EEB2
:1019A00093E00E94090B8093F5036091F503C8351D
:1019B00071F470E080E090E00E948D212091F603A8
:1019C0003091F7034091F8035091F9031FC0C935D6
:1019D00071F470E080E090E00E948D212091FA0384
:1019E0003091FB034091FC035091FD030FC0CA35B9
:1019F00099F470E080E090E00E948D212091FE0338
:101A00003091FF0340910004509101040E94D022C4
:101A10000E9443236093F5038091F503CF910895CD
:101A2000CF93DF9300D0CDB7DEB72EE229831A82A1
:101A300041E050E0BE016F5F7F4F0E9448160F905B
:101A40000F90DF91CF910895FC01809132028111B6
:101A500003C08FEF9FEF08959FB7F89482E08093C3
:101A6000E9002091F20030E01216130614F421E090
:101A700030E02115310559F0289884E68093310231
:101A80008091F10080838091F200882319F09FBF3C
:101A9000C90108958BE68093E800F9CF809189020F
:101AA00081110DC082E08093850284E080938602DC
:101AB000109288021092870281E08093890285E863
:101AC00092E008950F931F93CF93DF93DC0100E022
:101AD00010E0CD91DC911197F8013196CB018C1B70
:101AE0009D0B8E179F0738F1822F8F7797E05695C1
:101AF0004795379527959A95D1F7211531054105D9
:101B0000510509F08068C00FD11F88832115310568
:101B10004105510531F08F013497D9F68EEF9FEFD3
:101B20000CC08D919C911197E80FF91FED93FC93D8
:101B300080E090E002C08FEF9FEFDF91CF911F9187
:101B40000F9108954F925F926F927F929F92AF9202
:101B5000BF92CF92DF92EF92FF920F931F93CF939A
:101B6000DF936C018A01DA011D921D921D921C9275
:101B70001397FC01C081D1817B01EC1AFD0A5E0143
:101B8000E0E0F0E0412C512C320143943196EE1606
:101B9000FF0668F1E530F10569F1D5019D905D0121
:101BA000A92DAF77B0E0A30192010E945C22D80179
:101BB0002D913D914D915C911397260F371F481F32
:101BC000591F2D933D934D935C93139787E0440CDD
:101BD000551C661C771C8A95D1F797FCD7CFEC0F64
:101BE000FD1FD601ED93FC9380E090E005C08FEFE0
:101BF0009FEF02C08EEF9FEFDF91CF911F910F916A
:101C0000FF90EF90DF90CF90BF90AF909F907F902C
:101C10006F905F904F900895FC01A081B1816A1B85
:101C20007B0B6230710568F05C93A081B1811196E5
:101C30004C938081918102969183808380E090E033
:101C400008958FEF9FEF08950F931F93CF93DF9326
:101C5000FC0121153105A1F080819181681B790B70
:101C60006217730780F0E901BA018F01A9010E9490
:101C7000D925F801208131812C0F3D1F318320832C
:101C800080E090E002C08FEF9FEFDF91CF911F9136
:101C90000F910895CF92DF92EF92FF920F931F93CF
:101CA000CF93DF93EC018B0169017A01A9010E94B6
:101CB0000C0E009771F49601A701B801CE01DF91D7
:101CC000CF911F910F91FF90EF90DF90CF900C94E8
:101CD000240EDF91CF911F910F91FF90EF90DF9035
:101CE000CF9008951F920F920FB60F9211242F9349
:101CF0003F934F935F936F937F938F939F93AF9394
:101D0000BF93EF93FF938091B900887F803609F4E9
:101D10009CC068F5883209F45BC090F4803109F406
:101D200054C038F4882309F4F6C0883009F44DC053
:101D3000F6C0883109F44CC0803209F45DC0EFC0B0
:101D4000803409F468C048F4803309F455C08833FE
:101D500009F0E5C08093D402D8C0803509F44FC0A3
:101D6000883509F45DC0883409F0D9C0D6C08839F7
:101D700009F4C7C0A8F4883709F467C038F4883676
:101D800009F463C0803709F460C0C9C0883809F419
:101D9000B8C0803909F45FC0803809F0C0C05BC0AA
:101DA000803B09F486C038F4803A09F466C0883A6A
:101DB00009F47FC0B4C0803C09F4A7C0883C09F492
:101DC000A4C0883B09F48AC0AAC08091B10210C0A7
:101DD0009091D3028091D202981770F5E091D302CE
:101DE00081E08E0F8093D302F0E0EE54FD4F8081AE
:101DF0008093BB0085EC86C08093D4028EC0E091B6
:101E0000D30281E08E0F8093D3028091BB00F0E07B
:101E1000EE54FD4F80839091D3028091D2026EC028
:101E2000E091D30281E08E0F8093D3028091BB00BA
:101E3000F0E0EE54FD4F80838091E30381116DC08B
:101E400081E08093E20384EA61C083E08093E4034D
:101E500010928402CFCF80918402803208F051C06A
:101E6000E091840281E08E0F809384028091BB0018
:101E7000F0E0EC59FD4F8083BDCF85EC8093BC0032
:101E80001092E40380918402803230F4E091840265
:101E9000F0E0EC59FD4F10826091840270E0E09117
:101EA0006202F091630284E692E009951092840246
:101EB00036C084E08093E4031092610210926002C5
:101EC000E0915E02F0915F020995809160028111BC
:101ED00005C081E08093600210923E02E0916102B1
:101EE00081E08E0F80936102F0E0E25CFD4F808123
:101EF0008093BB009091610280916002981708F472
:101F000079CF85E88093BC000AC085EC8093BC0043
:101F10001092E40304C01092D4020E94C70AFF91F9
:101F2000EF91BF91AF919F918F917F916F915F9151
:101F30004F913F912F910F900FBE0F901F901895CA
:101F40008F929F92AF92BF92CF92DF92EF92FF92C9
:101F50006B017C010E947C0B4B015C01C114D1041C
:101F6000E104F104F1F00E947C0BDC01CB01881943
:101F70009909AA09BB09883E9340A105B10570F3F0
:101F800021E0C21AD108E108F10888EE880E83E04A
:101F9000981EA11CB11CC114D104E104F10419F76D
:101FA000DDCFFF90EF90DF90CF90BF90AF909F90EC
:101FB0008F9008952F923F924F925F926F927F92EF
:101FC0008F929F92AF92BF92CF92DF92EF92FF9249
:101FD0000F931F93CF93DF93CDB7DEB72B970FB639
:101FE000F894DEBF0FBECDBF9B878A875B011901C6
:101FF000FD82EC823A01600E711E872C7B82912C4F
:1020000044244A94542C9B01240F351F3F832E8374
:102010009101200F311F39872887EA85FB8580854C
:10202000981608F036C1AA85BB8514965C924E922C
:10203000139715968D919C911697DC01ED91FC916B
:102040000190F081E02D6FEF09956FEF8A859B85F8
:102050000E946F06EA85FB8585819681DC01ED9102
:10206000FC910190F081E02DAA85BB856C910995CA
:10207000EA85FB856081CF010E946F06AA85BB853A
:1020800015968D919C911697DC01ED91FC91019034
:10209000F081E02D682D09956B818A859B850E94D2
:1020A0006F06EA85FB8585819681DC01ED91FC91C7
:1020B0000190F081E02D662D0995662D8A859B851E
:1020C0000E946F0675012E813F81E216F306B1F082
:1020D000EA85FB85858196818701DC01ED91FC9184
:1020E0000190F081E02DD7016D917D010995F801F6
:1020F00060818A859B850E946F06E5CF7101AA8564
:10210000BB8515968D919C91169728853985E21689
:10211000F30691F08701DC01ED91FC910190F081D3
:10212000E02DD7016D917D010995F80160818A85C7
:102130009B850E946F06E3CFDC01ED91FC91AA859F
:10214000BB8514966C910190F081E02D0995EA858C
:10215000FB8585819681DC01ED91FC910190F081F8
:10216000E02DAA85BB8513966C91099564E670E015
:102170008A859B850E9438068F3F910509F07DC0B6
:10218000EA85FB85548243826FEFCF010E946F0680
:1021900065E070E08A859B850E943806AA85BB852C
:1021A0006C91262F30E08217930709F066C0CD01AD
:1021B0000E946F066AE070E08A859B850E9438065F
:1021C0007C0197FD5AC0682F8A859B850E946F0607
:1021D0006AE070E08A859B850E9438068C0197FD35
:1021E0004CC0682F8A859B850E946F06EA821982FF
:1021F000E981FA810E0F1F1FE12CF12C65E070E0E0
:102200008A859B85E016F106A9F0EC14FD0491F097
:102210000E94380697FD0AC0EC81FD81EE0DFF1D7E
:102220008083682F8A859B850E946F06FFEFEF1AD7
:10223000FF0AE4CF0E9438067C0197FD1EC065E0CE
:1022400070E08A859B850E94380697FD16C0FE2C9B
:10225000EE248E0D9F1DAA85BB8513962D913C9172
:1022600014972817390749F48C918F5F8C93C80114
:10227000C016D10680F4C6010EC0939464E670E0E7
:1022800080E090E00E94A00F8A859B850E941C063A
:10229000C4CE8FEF9FEF2B960FB6F894DEBF0FBE24
:1022A000CDBFDF91CF911F910F91FF90EF90DF9005
:1022B000CF90BF90AF909F908F907F906F905F90E6
:1022C0004F903F902F9008952FB7F8946091360269
:1022D0007091370280913802909139022FBF089592
:1022E0001F920F920FB60F9211242F933F938F934B
:1022F0009F93AF93BF938091360290913702A09144
:102300003802B09139023091350223E0230F2D3786
:1023100020F40196A11DB11D05C026E8230F0296E9
:10232000A11DB11D20933502809336029093370290
:10233000A0933802B093390280913A0290913B0207
:10234000A0913C02B0913D020196A11DB11D809368
:102350003A0290933B02A0933C02B0933D02BF919E
:10236000AF919F918F913F912F910F900FBE0F9042
:102370001F901895EF92FF920F931F93CF93DF93C7
:1023800000D000D0CDB7DEB77C01862F4AE08E01A9
:102390000F5F1F4FB80190E00E945121F80101909A
:1023A0000020E9F73197AF01401B510BB801C7017D
:1023B0000E9448160F900F900F900F90DF91CF91D1
:1023C0001F910F91FF90EF9008956F927F928F92DF
:1023D0009F92AF92BF92CF92DF92EF92FF920F93B4
:1023E0001F93CF93DF9300D0CDB7DEB79C01260FAC
:1023F000371F40913B0450913C044217530708F4A7
:1024000040C05B013C01812C912C8A149B04B0F5E7
:1024100060914D0470914E04E0915104F09152048A
:1024200082E394E009956B017C01672B682B692B93
:1024300019F11A82198240913F0450914004C4015D
:10244000860D971D480F591F6091450470914604F1
:10245000E0914704F09148048E010F5F1F4F9501F2
:102460002819390982E394E00995009761F489817C
:102470009A81880E991EC9CF8CEF04C080E090E04D
:1024800002C08FEF9FEF0F900F90DF91CF911F91C0
:102490000F91FF90EF90DF90CF90BF90AF909F9003
:1024A0008F907F906F900895AF92BF92CF92DF92FE
:1024B000EF92FF920F931F93CF93DF9300D0CDB78E
:1024C000DEB76C015A017C01E60EF71E922F929541
:1024D000907F977F81E02630310509F080E0880FFA
:1024E000997F982BEC14FD0409F1F6019193FA837E
:1024F000E98322E030E040E050E0B701CE010196F0
:102500000E94620D0097A9F4A801B701CE010196BF
:102510000E940C0E009769F489819A818C199D099B
:10252000F5019183808320E090E004C02FEF9FEFBE
:1025300001C0282F822F0F900F90DF91CF911F9114
:102540000F91FF90EF90DF90CF90BF90AF900895E4
:102550008F929F92AF92BF92CF92DF92EF92FF92B3
:102560000F931F93CF93DF9300D0CDB7DEB74C010D
:10257000A12CB12CA814B904A0F560914D04709160
:102580004E04E0915104F091520482E394E00995E5
:102590006B017C01672B682B692B01F11A82198270
:1025A00040913D0450913E044A0D5B1D60914504ED
:1025B00070914604E0914904F0914A048E010F5F46
:1025C0001F4F94012A193B0982E394E00995009773
:1025D00019F589819A81A80EB91ECCCF8CEF9FEF97
:1025E0001BC0209134043091350440913604509141
:1025F0003704A8EEB3E00E945C229B01AC0160911D
:102600004B0470914C04E0914F04F091500482E32C
:1026100094E0099580E090E00F900F90DF91CF91CA
:102620001F910F91FF90EF90DF90CF90BF90AF90F0
:102630009F908F9008952F923F924F925F926F924A
:102640007F928F929F92AF92BF92CF92DF92EF9242
:10265000FF920F931F93CF93DF93CDB7DEB76597AC
:102660000FB6F894DEBF0FBECDBF3C012B015D8BD2
:102670004C8B212C312CD3011D921C9261E070E017
:1026800080E090E00E94E5118C3FBFEF9B0709F4CA
:102690007CC0009709F07BC0E0913F04F0914004BA
:1026A000D30111961C921E92808182958F70282FE3
:1026B00030E02D933C93893079F020F482508630BD
:1026C00058F004C08B3041F08D3031F0F3011182AD
:1026D000108287EF9FEF02C080E090E0009709F042
:1026E00056C019821A821B821C82E12CF12C8701B0
:1026F0000F5F1F4F61E070E0C8010E94E511009775
:1027000009F045C060913F04709140046F5F7F4FB6
:1027100079876887600F711FAE014F5F5F4FCE01F1
:1027200008960E94A20D8E3FFFEF9F0739F4198291
:102730001A821B821C8289EF9FEF06C0009721F04E
:1027400019821A821B821C828F3F2FEF920711F48D
:102750007801CDCF0097D9F469817A818B819C81F2
:10276000611571058105910549F489819A81019668
:10277000820D931D1C01200E311E07C0C701029659
:102780000E94E511009789F302C080E090E0009775
:1027900009F06DC1D3018D919C91009709F43DC161
:1027A0008530910509F4C0C018F4039759F035C17C
:1027B0008630910509F4D5C00D9709F02EC110920D
:1027C00038042BC100913B0410913C0480913F04DC
:1027D000909140049D878C87080F191F80179107DF
:1027E00009F45AC0FC018191FD87EC87982F907FF6
:1027F000903309F049C0982F96959370892E912CAB
:1028000081708B83AE01485F5F4FB801CE010C969B
:102810000E94A20D009709F041C088859985AA857C
:10282000BB8582309105A105B10588F1EC85FD8558
:102830000E1B1F0B012E000C220B330B0817190760
:102840002A073B0748F19F01280F391F029720F103
:10285000808190E0982F88274181840F911D3296C6
:10286000FD87EC87009719F41B8A1A8AA9C0A90171
:102870004E1B5F0B4817590778F0FB8BEA8BE80F6C
:10288000F91FFD87EC879CC087EF9FEF07C088EF9B
:102890009FEF04C01F861E868FEF9FEF009709F001
:1028A000E6C0E0914304F09144043097A1F06091B8
:1028B000410470914204A82C9A828982BA80CB800C
:1028C000DC80ED80FE800F81288939894A895B8907
:1028D00082E394E009958114910409F49EC071E0AB
:1028E0008716910439F082E08816910431F020E0D7
:1028F00030E005C025E030E002C026E030E0609125
:10290000390470913A040E851F85AE01485F5F4F10
:1029100080913D0490913E040E945412009709F06A
:10292000A6C08885998547C060913B0470913C049E
:102930008E01085F1F4F9E01245F3F4FA3018091CE
:102940003F04909140040E94C005009709F08FC099
:10295000088519856091390470913A0426E030E0C9
:102960001CC060913B0470913C048E01085F1F4FB6
:102970009E01245F3F4FA30180913F04909140044A
:102980000E94C005009709F072C008851985609102
:10299000390470913A0427E030E0AE014F5F5F4F99
:1029A00080913D0490913E040E945412009709F0DA
:1029B0005EC089819A810E94A812009771F157C068
:1029C000998B888B8114910429F1EC85FD85C901CF
:1029D0008E1B9F0B029708F45DCF808190E0982FAB
:1029E00088274181BC01640F711D7F876E873296F5
:1029F000FD87EC878C859D85281B390B3F832E83B3
:102A0000232B19F41D821C8202C09D838C8380E0DD
:102A100090E044CF1F861E86EDCF2C893D89232B65
:102A200031F44114510419F480E090E020C0D30146
:102A30008D919C91EC89FD898E179F07A9F3609178
:102A40004D0470914E04E0915104F091520482E3E0
:102A500094E00995672B682B692B31F341145104DD
:102A600009F409CE2414350408F405CEDDCF6596AB
:102A70000FB6F894DEBF0FBECDBFDF91CF911F918F
:102A80000F91FF90EF90DF90CF90BF90AF909F900D
:102A90008F907F906F905F904F903F902F90089510
:102AA00080910F0490911004DC01ED91FC91048859
:102AB000F589E02D0995813019F48091530408952A
:102AC00080E008954091D3045091D4042091D10422
:102AD0003091D20442175307B4F49091E8009570F6
:102AE000E1F39091E80092FD19C08093F10080918C
:102AF000D3049091D40401968F739927892B19F4EC
:102B00008EEF8093E8008091D3049091D4040196D5
:102B10009093D4048093D30481E0089580E00895D5
:102B2000DF92EF92FF920F931F93CF93DF93D82EF4
:102B30008A017B01E40EF51EEB01CE15DF0571F075
:102B4000D7FE03C0FE01849101C088810E946215F6
:102B500021968111F2CF8FEF9FEF01C0C801DF9165
:102B6000CF911F910F91FF90EF90DF9008956150EA
:102B700030F02091F100FC0120830196F8CF2898D5
:102B800084E6809331020895CF92DF92EF92FF9214
:102B90000F931F93CF93DF936C017A018B01C0E0F9
:102BA000D0E0CE15DF0589F0D8016D918D01D601F9
:102BB000ED91FC910190F081E02DC6010995892BE2
:102BC00011F47E0102C02196ECCFC701DF91CF91B5
:102BD0001F910F91FF90EF90DF90CF9008950F938A
:102BE0001F93CF93DF931F92CDB7DEB782E0898327
:102BF00042E450E065E471E080E80E9490150E9494
:102C00004E0DDC0112960D911C91139701151105C3
:102C100069F0D801ED91FC910280F381E02DBE01B5
:102C20006F5F7F4FC801099597FF07C089810F909B
:102C3000DF91CF911F910F910895F80100851185C3
:102C4000E5CF0F931F93CF93DF93EC018881998198
:102C5000009729F02A813B812617370788F48B01DA
:102C60006F5F7F4F0E940A25009761F099838883E8
:102C70001B830A832C813D81232B11F4FC011082DC
:102C800081E001C080E0DF91CF911F910F91089505
:102C9000EF92FF920F931F93CF93DF93FC01248158
:102CA00035816115710511F480E019C04115510598
:102CB000A9F07B01EC018A01020F131FB8010E94E9
:102CC0002116882389F3288139818C819D81B70160
:102CD000820F931F0E94E2251D830C8381E0DF9108
:102CE000CF911F910F91FF90EF900895CF93DF93B5
:102CF000EC0188819981009711F00E947224198259
:102D000018821D821C821B821A82DF91CF91089546
:102D1000EF92FF920F931F93CF93DF93EC017B0110
:102D20008A01BA010E942116811104C0CE010E94BD
:102D3000761607C01D830C83B701888199810E9494
:102D4000E225CE01DF91CF911F910F91FF90EF907F
:102D50000895FC01808191810C947224EF92FF927E
:102D60000F931F93CF93DF93CDB7DEB762970FB664
:102D7000F894DEBF0FBECDBF8C01CB01F8011182EC
:102D80001082138212821582148250E09E012F5FFE
:102D90003F4F7901B9010E944621F70101900020BF
:102DA000E9F73197AF014E195F09B701C8010E94D9
:102DB000881662960FB6F894DEBF0FBECDBFDF91C6
:102DC000CF911F910F91FF90EF900895FC01118218
:102DD000108213821282158214826115710551F0DE
:102DE000FB0101900020E9F73197AF01461B570B1B
:102DF0000C94881608951F920F920FB60F9211240B
:102E00008F939F938091E1009091E100937F909345
:102E1000E10083FF0FC01092E90091E09093EB0076
:102E20001092EC0092E39093ED001092320298E041
:102E30009093F00082FF20C093E09093E90090917E
:102E4000F200992319F09AE39093E8009091D0044E
:102E5000992339F09091D00491509093D004992304
:102E600089F190913102992339F09091310291507A
:102E700090933102992341F184FF10C08091E200C8
:102E80008E7E81608093E2008091E1008F7E80934E
:102E9000E1008091CF048E7E806111C080FF16C05A
:102EA0008091E2008E7E80618093E2008091E1005B
:102EB0008E7E8093E1008091CF048E7E816080932E
:102EC000CF0404C05D9ACDCF289AD6CF9F918F9121
:102ED0000F900FBE0F901F9018951F920F920FB674
:102EE0000F921124CF92DF92EF92FF920F931F93D4
:102EF0002F933F934F935F936F937F938F939F9302
:102F0000AF93BF93EF93FF93CF93DF93CDB7DEB72C
:102F10006C97DEBFCDBF1092E9008091E80083FF7F
:102F2000EDC168E0CE0145960E94B71582EF80930F
:102F3000E8008D8987FF05C09091E80090FFFCCFE5
:102F400003C09EEF9093E800982F907609F0C6C0DA
:102F50009E892F89188D91110CC0803829F4809199
:102F6000CE048093F10002C01092F1001092F100A3
:102F700048C1422F50E0512B913051F4811141C191
:102F80004130510509F03DC18091CE048D7F0BC0C9
:102F9000933061F4811135C14130510509F031C1DF
:102FA0008091CE0482608093CE042BC1953041F491
:102FB0008091E80080FFFCCF20682093E30021C1CE
:102FC000963009F05FC0EB8CFC8C1092E9001092F7
:102FD000D4041092D304123091F51092D2041092BE
:102FE000D1040E94EF1599E0BE016F5F7F4FDB01B6
:102FF000E92F1D92EA95E9F799831A8391E09E8360
:1030000090EA98879AEF99872091D3043091D4045D
:10301000275F3F4F3C832B838D831092E9001092F2
:10302000D4041092D304F092D204E092D10449E087
:1030300050E080E00E9490150E94EF15E2C0F092EF
:10304000D204E092D1040E944E0DDC011296ED9064
:10305000FC901397E114F10409F4C0C0D701ED917D
:10306000FC910480F581E02DBE016B5E7F4FC701AE
:103070000995009719F00CF0C4C0C7C0F701E084AF
:10308000F184E8CF973009F4C0C0983021F481E092
:103090008093F100B6C0993009F0B3C0837009F095
:1030A000B4C0E6E8F1E081E021E036E390819923C5
:1030B00061F08093E9002093EB0091919093EC00F4
:1030C0003093ED008F5F873089F78EE78093EA00B9
:1030D0001092EA008F898093320293C08B8D9C8D71
:1030E0001092E9001092D4041092D3049093D20469
:1030F0008093D104898D811156C08E899D89913A22
:1031000059F4813209F081C047E050E064E071E099
:1031100080E00E94901575C0913209F076C083322C
:1031200089F4888D90E0982F88272F89822BA0E042
:10313000B0E08093000190930101A0930201B0934D
:1031400003015FC0803269F48091E80082FFFCCF08
:1031500067E084E091E00E94B7158BEF8093E80070
:1031600006C0823209F04DC08F8980930B01809197
:10317000CD04882319F0EEEFFAE002C0E0E0F8E0B9
:103180008091040190910501A0910601B091070181
:10319000803B9440A105B10509F07BC080910B01F3
:1031A00080FF93C076C00E944E0DDC0112960D91F7
:1031B0001C9113970115110541F1D801ED91FC9176
:1031C0000190F081E02DBE016B5E7F4FC801099533
:1031D000811117C0F80100851185ECCF113009F479
:1031E0004EC0133091F48F89882309F445C0823092
:1031F00081F440E86BE089EA91E00E94092188238C
:1032000021F08EEF8093E80079C081E28093EB009B
:1032100075C0813029F440E86BE08DE991E0EDCF95
:10322000833099F70E944E0DDC011296ED90FC90D0
:1032300013978E010F5F1F4F6801E114F10479F0BD
:10324000D701ED91FC910680F781E02DB801C7010F
:103250000995080F111DF701E084F184EECFD80124
:103260001C92F60101900020E9F73197BF016C191B
:103270007D0940E0C601C1CF67E871E002C06BE89C
:1032800071E06115710509F2FB01449150E080E89D
:1032900040CF0FB6F894A895809160008861809324
:1032A0006000109260000FBEA895EE3F2AE0F20782
:1032B00039F08091FE0A9091FF0A91838083A1CF1B
:1032C0001092FF0A1092FE0A9CCFEE3F8AE0F807A8
:1032D00031F0808191819093FF0A8093FE0A87E705
:1032E00097E7918380839BE088E10FB6F894A895D7
:1032F000809360000FBE9093600083CF6C960FB6F2
:10330000F894DEBF0FBECDBFDF91CF91FF91EF915B
:10331000BF91AF919F918F917F916F915F914F91ED
:103320003F912F911F910F91FF90EF90DF90CF90E1
:103330000F900FBE0F901F9018954F925F926F9253
:103340007F92EF92FF920F931F93CF93DF93CDB7AE
:10335000DEB7A1970FB6F894DEBF0FBECDBF7C01DC
:10336000FA01CB0119A2223008F42AE08E010F5D88
:103370001F4F422E512C612C712CBF01A3019201D1
:103380000E949E22F901CA01015011096A3014F409
:10339000605D01C0695CD8016C93232B242B252B25
:1033A00061F7B801C7010E940A1AA1960FB6F894F6
:1033B000DEBF0FBECDBFDF91CF911F910F91FF9068
:1033C000EF907F906F905F904F900895EF92FF92F3
:1033D0000F931F93CF93DF938C017B01C0E0D0E06C
:1033E000F701EC0FFD1F6491662361F0D801ED91A8
:1033F000FC910190F081E02DC8010995892B11F015
:103400002196EECFCE01DF91CF911F910F91FF90CA
:10341000EF9008956115710579F0FB01019000208E
:10342000E9F73197AF01461B570BDC01ED91FC9199
:103430000280F381E02D099480E090E00895CF931D
:10344000DF93C2E0D4E08A819B810E9472248C8148
:103450009D81DF91CF910C947224CF93DF93CDB7F0
:10346000DEB7A0970FB6F894DEBF0FBECDBF78943D
:1034700084B5826084BD84B5816084BD85B5826079
:1034800085BD85B5816085BD80916E00816080932A
:103490006E00109281008091810082608093810093
:1034A00080918100816080938100809180008160A3
:1034B0008093800080919100826080939100809140
:1034C0009100816080939100809190008160809351
:1034D00090008091C10084608093C1008091C10000
:1034E00082608093C1008091C10081608093C1009F
:1034F0008091C30081608093C3008091C00082608E
:103500008093C0008091C20081608093C20080914E
:103510007A00846080937A0080917A008260809340
:103520007A0080917A00816080937A0080917A009D
:10353000806880937A00109232021092CE0410922A
:10354000CF048091D70081608093D70080EA809378
:10355000D80089B5806189BD89B5826089BD09B40B
:1035600000FEFDCF61E070E080E090E00E94A00FDF
:103570008091D8008F7C80618093D8008091E0009A
:10358000807F8093E0008091E1008E7E8093E10057
:103590008DE08093E200559A209AEEEFFFE7859147
:1035A00094918B3F9C4D19F481E08093CD04E09180
:1035B0006104F0916204A089B18982E08C93A485B2
:1035C000B5851C92A685B78587E08C93108EA4895B
:1035D000B58986E08C93A289B3898C9180618C93A4
:1035E000A289B3898C9188608C93A289B3898C91CC
:1035F00080688C930288F389E02D80818F7D8083A1
:1036000080915F048111C8C081E080935F0488E5E8
:1036100094E00E941C0668EE73E080E090E00E9457
:10362000A00F80915D0490915E04DC01ED91FC910E
:103630000480F581E02D09951816190644F385E0FC
:10364000F82EEE24E39492E3D92EE1E2F1E0DE01DC
:1036500017968F2D01900D928A95E1F7E092600404
:1036600000E010E020E030E045E050E0BE01695F9E
:103670007F4F88E594E00E94860680915D049091DA
:103680005E04DC01ED91FC910190F081E02D63E09E
:1036900009956AEF70E080E090E00E94A00F68ED6D
:1036A00070E080915D0490915E040E94E6196AEFDB
:1036B00070E080E090E00E94A00F66ED70E08091E5
:1036C0005D0490915E040E94E61964EF71E080E071
:1036D00090E00E94A00F6AEC70E080915D049091F0
:1036E0005E040E94E61964EF71E080E090E00E94C1
:1036F000A00F88E594E00E941C06E6E2F1E0DE01FE
:1037000011968F2D01900D928A95E1F7D092600469
:1037100004E010E09E01235F3F4F45E050E0BE0112
:103720006F5F7F4F88E594E00E9486068F3FBFEF72
:103730009B0739F468EE73E080E090E00E94A00FF0
:1037400084CF2D852111FFCF0497E9F42E8530E039
:103750002053310984E6829FA001839F500D1124DC
:103760002F8530E0205331096AE0629FC001639FDA
:10377000900D1124840F951F288930E020533109C2
:10378000820F931F02C084E690E090935A048093C6
:10379000590482E3809360048FEF9FEF90930203BC
:1037A0008093010368EE73E080E090E00E94A00F38
:1037B00081E0809333028DE1809334021092E6031E
:1037C0001092E50386E190E00E945B0C85E090E0BA
:1037D0000E945B0C81E00E94FE0B68EE73E080E0CB
:1037E00090E00E94A00F80E090E0A0E0B1E4809320
:1037F000F6039093F703A093F803B093F90380E0E6
:1038000090E0A0EAB1E48093FA039093FB03A093C5
:10381000FC03B093FD031092FE031092FF0310927D
:103820000004109201048CEE91E0909312048093B6
:1038300011048BE597E0909314048093130483E6BE
:1038400094E09093100480930F042091040430912D
:103850000504809102049091030440910604509164
:10386000070461E070E070933304609332041092B7
:1038700034041092350410923604109237041092DA
:10388000380450933E0440933D0490933A0480934F
:1038900039043093400420933F0490933C04809378
:1038A0003B04109244041092430410924604109278
:1038B0004504109248041092470410924A04109252
:1038C00049048AE294E090934C0480934B048EE286
:1038D00094E090934E0480934D0484ED93E0909394
:1038E000500480934F048CEB93E0909352048093A8
:1038F00051040E94641160932A0470932B048093F6
:103900002C0490932D0460914D0470914E04E0912D
:103910004F04F091500420E030E0A90182E394E0EC
:10392000099588E294E090934604809345048BE5E2
:1039300093E090934804809347048EE092E0909344
:103940004A048093490482E094E090932204809397
:1039500021041092230484E994E090932504809339
:10396000240481E294E090934204809341048FEC1C
:1039700094E090934404809343040E9449080E9479
:1039800064114B015C0160932D0270932E028093B1
:103990002F029093300288E70E94600C082F8093DA
:1039A0002C0289E70E94600C182F80932B028AE773
:1039B0000E94600C80932A021102B00111240002BF
:1039C000600D711D11248802600D711D1124072ED8
:1039D000000C880B990B0E948D210E947D2320E012
:1039E00030E048E752E40E94CF226B017C01409016
:1039F0002602509027026090280270902902A301AD
:103A00009201C301B2010E94BD2381111AC120E0BD
:103A100030E0A901C301B2010E94862120E030E01C
:103A2000A90187FF07C0C701B6010E94722387FF63
:103A300012C007C0C301B2010E94862118160CF4FF
:103A4000C1C020E030E0A901C701B6010E94722385
:103A500018160CF0B7C020911E0230911F02409141
:103A600020025091210260912202709123028091E4
:103A70002402909125020E94CF2260931A02709333
:103A80001B0280931C0290931D020E943C239B0109
:103A9000AC01AFE7B0E00E945C2226E930E040E0F4
:103AA00050E06B36EFEF7E078E079E076CF00E94AA
:103AB0003D22CA01B9010E948D2120E030E040E0A2
:103AC0005FE30E94D0220CC00E943D22CA01B901CE
:103AD0000E948D2120E030E040E05FE30E94CF2291
:103AE0000E943C23709319026093180210921E02E8
:103AF00010921F02109220021092210210922202B4
:103B00001092230210922402109225028091140236
:103B100090911502A0911602B0911702A50194018F
:103B2000281B390B4A0B5B0B2093100230931102B8
:103B3000409312025093130224563109410951094E
:103B4000AAE0B0E00E945C22613733EB73073FEFDD
:103B500083079307ACF020E931E040E050E00E9499
:103B60003D22CA01B901605D7F4F8F4F9F4F0E9478
:103B70008D2120E030E040E05FE30E94D02214C0BD
:103B800020E931E040E050E00E943D22CA01B90145
:103B9000605D7F4F8F4F9F4F0E948D2120E030E06E
:103BA00040E05FE30E94CF220E943C2370930F020B
:103BB00060930E028092140290921502A092160257
:103BC000B092170220E030E0A901C701B6010E94BF
:103BD00072231816BCF420912202309123024091E6
:103BE000240250912502C701B6010E9472231816C3
:103BF00044F5C0922202D0922302E0922402F09275
:103C000025021FC020E030E0A901C701B6010E94D3
:103C1000862187FF16C020911E0230911F0240911D
:103C2000200250912102C701B6010E94862187FF20
:103C300008C0C0921E02D0921F02E0922002F092B1
:103C400021020E945015882309F4AFC080910F040F
:103C500090911004DC01ED91FC910480F581E02D40
:103C600009958C01892B19F120910B0430910C04DA
:103C700040910D0450910E0460914D0470914E04DA
:103C8000E0914F04F091500482E394E009951A8288
:103C9000198240E050E0B801CE0101960E941B134A
:103CA0009093570480935604892B09F07CC020918F
:103CB0000B0430910C0440910D0450910E0460915E
:103CC0004D0470914E04E0914F04F091500482E352
:103CD00094E009958091340490913504A0913604C4
:103CE000B0913704892B8A2B8B2B09F44FC060913C
:103CF0004B0470914C04E0915104F091520482E322
:103D000094E00995672B682B692B09F03FC08091DF
:103D1000380481113EC06091390470913A040091D9
:103D20003D0410913E041A830983600F711F6017D0
:103D30007107D9F020ECF801208389819A810196DE
:103D40009A83898320E030E0A901CE0101960E9488
:103D5000620D009769F489819A81AC01401B510B77
:103D60005A8F498F00E010E004C00FEF1FEF01C031
:103D70008C010115110589F4898D9A8D0E94A81274
:103D8000009751F451E05093380407C000E010E070
:103D900004C003EF1FEF01C08C0110935704009380
:103DA0005604012B11F0109253040E9450158111FA
:103DB00002C00E94490860911802709119024AE0FD
:103DC000CE0101960E94AE1660910E0270910F0214
:103DD0004AE0CE010D960E94AE1618861F821A8602
:103DE00019861C861B866D857E856115710531F0EF
:103DF00049895A89CE0107960E94881641E050E011
:103E00006DEF71E0CE0107960E944816882309F4F1
:103E1000E3C04D815E8169817A81CE0107960E945F
:103E20004816811104C0CE0107960E9476161C8A9E
:103E30001B8A1E8A1D8A188E1F8A6F8178856115DC
:103E4000710531F04B855C85CE0143960E94881642
:103E5000CE0107960E94A916CE010D960E94A916C2
:103E6000CE0101960E94A9160E94641100910A02D7
:103E700010910B0220910C0230910D02DC01CB015C
:103E8000801B910BA20BB30B0B97A105B10508F496
:103E900094C00E94641160930A0270930B02809395
:103EA0000C0290930D022B883C88F10101900020B8
:103EB000E9F731974F01821893080E945015882323
:103EC00009F47BC020910B0430910C0440910D0447
:103ED00050910E048FEF91E02D8F3E8F4F8F58A39E
:103EE0000E94B5052B013C0160914D0470914E0478
:103EF000E0914F04F09150042D8D3E8D4F8D58A1CF
:103F000082E394E009950091390410913A04A0905D
:103F10003D04B0903E046B8E7C8EBA82A9820A0D5D
:103F20001B1D92012E5F3F4FC901A0E0B0E09C0134
:103F3000AD01280D391D411D511D0A151B0549F103
:103F4000E0E3D501EC9389819A8101969A83898374
:103F5000B801CE0101960E94620D0097F9F492011A
:103F60004B8D5C8DB801CE0101960E944A0E0097E0
:103F7000A9F49401A101B801CE0101960E94240E7A
:103F8000009761F429813A812A193B0980E090E089
:103F900007C020E030E08FEF9FEF02C020E030E06C
:103FA000009719F4C9010E94A812909357048093B6
:103FB0005604892B11F010925304C0922602D0921D
:103FC0002702E0922802F0922902CE0143960E9435
:103FD000A9160E94C901D3CCCE0107960E9476167D
:103FE00018CF1F93CF93DF93E9EEF3E01382128291
:103FF00048EE53E060E070E0448355836683778346
:104000008FE291E091838083EBEBF4E08DE791E028
:10401000918380831282138214821582E5E4F3E097
:104020001382128244835583668377832FE331E0C2
:10403000318320832DEC30E0358724872CEC30E071
:104040003787268728EC30E0318B208B29EC30E055
:10405000338B228B2AEC30E0358B248B2EEC30E036
:10406000378B268B118E128E138E148EA5EFB2E035
:1040700013961C921E92129714964D935D936D9316
:104080007C9317972FE431E011963C932E932FEFFA
:104090003FEF1D963C932E931C97A1ECB4E0119634
:1040A0009C938E9312961C92129713961C921397C0
:1040B00014961C92149715961C92A7ECB4E01196D6
:1040C0009C938E9312961C92129713961C921397A0
:1040D00014961C92149715961C92A8E5B4E01C92B5
:1040E0001696FC93EE93159717961C9217971896B1
:1040F0001C9218971A96FC93EE931997E5EBF4E04F
:10410000918380831282138214821582E3E6F4E0A5
:104110001382128244835583668377838FE591E00F
:1041200091838083B587A48716861786108AC2E09C
:10413000D4E08CE390E09F838E8311E01887498759
:104140005A876B877C871E861D86188A1F861A8A67
:10415000198A8BE0E5E1F4E0DF011D928A95E9F729
:104160001E8E18A21F8E19A21BA21AA21DA21CA28B
:104170001FA21EA218A619A61AA61BA61CA61DA63B
:104180001EA61FA681E2E2E3F4E0DF011D928A95FC
:10419000E9F71092530410925504109254041092AF
:1041A00057041092560480E890E09983888381E850
:1041B00090E00E94DD239B838A8380E890E00E9448
:1041C000DD239D838C831092E8031092E703109205
:1041D000E6031092E5031092E4031093E3031092B8
:1041E000E20382E00E94A10B83E00E94A10BE9EBB5
:1041F000F0E080818E7F808380818D7F808388E462
:104200008093B80085E48093BC00DF91CF911F912B
:104210000895CF92DF92EF92FF920F931F93CF9367
:10422000DF931F92CDB7DEB7182F062FE42E862F0F
:10423000880F8E5F99830E94621583E00E94621549
:10424000F12EC12E9981D92E8C2D8F19801798F4BB
:10425000F601E7FE02C0849101C080810E946215D0
:10426000182F80E00E9462158123FFEFCF1ADF0A2A
:104270008111EACF01C081E00F90DF91CF911F91B2
:104280000F91FF90EF90DF90CF9008954532510548
:1042900020F4423010F00C945121FB011082CB012C
:1042A0000895BB274A3031F4992322F4BDE290955A
:1042B00081959F4F0C945D21BB27FB015527AA27B1
:1042C000880F991FAA1FA41710F0A41B83955051A3
:1042D000B9F7A05DAA3308F0A95DA193009779F71B
:1042E000B111B1931192CB010C947621DC01FC0148
:1042F000672F71917723E1F7329704C07C916D931A
:1043000070836291AE17BF07C8F308950E94C82159
:1043100008F481E00895E89409C097FB3EF4909575
:104320008095709561957F4F8F4F9F4F9923A9F08E
:10433000F92F96E9BB279395F6958795779567951D
:10434000B795F111F8CFFAF4BB0F11F460FF1BC061
:104350006F5F7F4F8F4F9F4F16C0882311F096E9F4
:1043600011C0772321F09EE8872F762F05C06623A2
:1043700071F096E8862F70E060E02AF09A95660F5B
:10438000771F881FDAF7880F9695879597F9089514
:10439000990F0008550FAA0BE0E8FEEF1616170656
:1043A000E807F907C0F012161306E407F50798F0BE
:1043B000621B730B840B950B39F40A2661F0232BD7
:1043C000242B252B21F408950A2609F4A140A69553
:1043D0008FEF811D811D089597F99F6780E870E038
:1043E00060E008959FEF80EC089500240A9416166B
:1043F000170618060906089500240A9412161306D3
:10440000140605060895092E0394000C11F4882360
:1044100052F0BB0F40F4BF2B11F460FF04C06F5F7C
:104420007F4F8F4F9F4F089557FD9058440F551F52
:1044300059F05F3F71F04795880F97FB991F61F026
:104440009F3F79F087950895121613061406551F9D
:10445000F2CF4695F1DF08C0161617061806991F09
:10446000F1CF86957105610508940895E894BB27FE
:1044700066277727CB0197F90895052E97FB1EF441
:1044800000940E94542257FD07D00E949E2207FCF0
:1044900003D04EF40C9454225095409530952195BC
:1044A0003F4F4F4F5F4F0895909580957095619560
:1044B0007F4F8F4F9F4F08950E94C022A59F900D60
:1044C000B49F900DA49F800D911D112408952F92EB
:1044D0003F924F925F926F927F928F929F92AF9294
:1044E000BF92CF92DF92EF92FF920F931F93CF93E1
:1044F000DF93CDB7DEB7CA1BDB0B0FB6F894DEBF78
:104500000FBECDBF09942A88398848885F846E849D
:104510007D848C849B84AA84B984C884DF80EE80E7
:10452000FD800C811B81AA81B981CE0FD11D0FB6F0
:10453000F894DEBF0FBECDBFED010895A1E21A2EA3
:10454000AA1BBB1BFD010DC0AA1FBB1FEE1FFF1F37
:10455000A217B307E407F50720F0A21BB30BE40B87
:10456000F50B661F771F881F991F1A9469F76095CE
:104570007095809590959B01AC01BD01CF01089588
:10458000A29FB001B39FC001A39F700D811D112494
:10459000911DB29F700D811D1124911D08955058D9
:1045A000BB27AA270E94E7220C9403220E94F52130
:1045B00038F00E94FC2120F039F49F3F19F426F4D2
:1045C0000C94F2210EF4E095E7FB0C94EC21E92F1A
:1045D0000E94142258F3BA176207730784079507DD
:1045E00020F079F4A6F50C9436220EF4E0950B2E0B
:1045F000BA2FA02D0B01B90190010C01CA01A00135
:104600001124FF27591B99F0593F50F4503E68F18F
:104610001A16F040A22F232F342F4427585FF3CFD0
:10462000469537952795A795F0405395C9F77EF4A1
:104630001F16BA0B620B730B840BBAF09150A1F0EA
:10464000FF0FBB1F661F771F881FC2F70EC0BA0F70
:10465000621F731F841F48F4879577956795B795F8
:10466000F7959E3F08F0B0CF9395880F08F09927F3
:10467000EE0F9795879508950E9443236894B11192
:104680000C94372208950E941C2288F09F5798F0BE
:10469000B92F9927B751B0F0E1F0660F771F881F47
:1046A000991F1AF0BA95C9F714C0B13091F00E9461
:1046B0003622B1E008950C943622672F782F882790
:1046C000B85F39F0B93FCCF3869577956795B39588
:1046D000D9F73EF490958095709561957F4F8F4FF7
:1046E0009F4F08950E94C82108F48FEF089519F490
:1046F00016F40C94F2210C94C2230E941C22B8F3ED
:104700009923C9F3B6F39F57550B87FF0E94D02317
:104710000024A0E640EA900180585695979528F429
:10472000805C660F771F881F20F026173707480721
:1047300030F4621B730B840B202931294A2BA69578
:1047400017940794202531254A2758F7660F771FBD
:10475000881F20F026173707480730F4620B730BC9
:10476000840B200D311D411DA09581F7B901842FC7
:104770009158880F9695879508950E94C821880BB7
:10478000990B08959F3F31F0915020F487957795CC
:104790006795B795880F911D9695879597F9089518
:1047A00091505040660F771F881FD2F70895EE0F83
:1047B000FF1F0590F491E02D0994CF93DF93823091
:1047C000910510F482E090E0E091D704F091D804D4
:1047D00020E030E0C0E0D0E0309711F1408151811D
:1047E00048175907C0F04817590761F4828193812F
:1047F000209719F09B838A832BC09093D8048093D1
:10480000D70426C02115310519F04217530718F4B3
:104810009A01BE01DF01EF010280F381E02DDCCFC0
:104820002115310509F1281B390B2430310590F48D
:1048300012968D919C9113976115710521F0FB01E2
:104840009383828304C09093D8048093D704FD019E
:10485000329644C0FD01E20FF31F819391932250E1
:1048600031092D933C933AC02091D5043091D60460
:10487000232B41F420910E0130910F013093D60487
:104880002093D50420910C0130910D0121153105A3
:1048900041F42DB73EB74091100150911101241BF6
:1048A000350BE091D504F091D604E217F307A0F49C
:1048B0002E1B3F0B2817390778F0AC014E5F5F4F76
:1048C0002417350748F04E0F5F1F5093D6044093CE
:1048D000D5048193919302C0E0E0F0E0CF01DF9135
:1048E000CF9108950F931F93CF93DF93009709F40F
:1048F0008CC0FC013297138212820091D704109170
:10490000D8040115110581F420813181820F931F94
:104910002091D5043091D6042817390779F5F09302
:10492000D604E093D50471C0D80140E050E0AE1742
:10493000BF0750F412962D913C911397AD012115AC
:10494000310509F1D901F3CF9D01DA0133832283C7
:1049500060817181860F971F8217930769F4EC01BC
:1049600028813981260F371F2E5F3F4F31832083E7
:104970008A819B8193838283452B29F4F093D80409
:10498000E093D70442C01396FC93EE931297ED0187
:10499000499159919E01240F351FE217F30771F4D5
:1049A00080819181840F951F029611969C938E931E
:1049B0008281938113969C938E931297E0E0F0E0AE
:1049C000D80112968D919C911397009719F0F801D8
:1049D0008C01F6CF8D919C9198012E5F3F4F820FF5
:1049E000931F2091D5043091D6042817390769F414
:1049F000309729F41092D8041092D70402C0138281
:104A000012821093D6040093D504DF91CF911F91A9
:104A10000F910895A0E0B0E0E0E1F5E20C946B2284
:104A2000EC01009721F4CB010E94DD23B8C0FC010A
:104A3000E60FF71F9C0122503109E217F30708F433
:104A4000ACC0D9010D911C91119706171707B0F052
:104A50000530110508F49FC0C80104978617970711
:104A600008F499C002501109061B170B019311930A
:104A70006D937C93CF010E9472248DC05B01A01ABC
:104A8000B10A4C01800E911EA091D704B091D804B8
:104A900040E050E0E12CF12C109709F44AC0A81531
:104AA000B905D1F56D907C901197630182E0C80E35
:104AB000D11CCA14DB0480F1A3014A195B096A0105
:104AC00082E0C80ED11C1296BC9012971396AC913E
:104AD000B5E0CB16D10440F0B282A383518340836A
:104AE000D9016D937C930AC00E5F1F4FC301800FE5
:104AF000911FF90191838083EB2DFA2FE114F104CA
:104B000031F0D7011396FC93EE93129744C0F093C3
:104B1000D804E093D7043FC08D919C91119748171A
:104B2000590708F4AC017D0112960D90BC91A02D9F
:104B3000B3CF8091D5049091D60488159905E1F4FE
:104B400046175707C8F480910C0190910D0100970A
:104B500041F48DB79EB74091100150911101841B13
:104B6000950BE817F907C8F4F093D604E093D50441
:104B7000F901718360830FC0CB010E94DD237C01AA
:104B8000009759F0A801BE010E94D925CE010E94CC
:104B90007224C70104C0CE0102C080E090E0CDB70E
:104BA000DEB7EEE00C94872281E090E0F8940C945C
:104BB000E925FB01DC0102C001900D9241505040FB
:104BC000D8F70895FB01DC0101900D920020E1F778
:104BD000089510E0CCEDD0E004C0FE010E94D72380
:0C4BE0002196CD3DD107C9F7F894FFCF16
:104BEC00FFFFFFFF00E10000000000000000D904FF
:104BFC008000000000003C000100000000000000EC
:104C0C000058585858585858313030000000004D52
:104C1C000B1D0BBF0A090BFA0AF90A000000006011
:104C2C0001C415290107011B01A70100000000D3D5
:104C3C00018002F40117033503E901000000005A5A
:104C4C0007FB031308FB07B507290231049B06C8B1
:104C5C00071D081D0733022A02000000003602005F
:104C6C00000000590300C18081000000696E636F71
:104C7C006D696E673A2000202D20000D0A00636FCD
:104C8C006E6E656374696E672E2E2E0061636365AC
:104C9C006C6F726D657465722D696E2D6D696469CA
:104CAC0000343466643638373400626262623632FD
:104CBC0035353736626261613366004D51545400AC
:104CCC000A636F6E6E6563746564210062726F6B4C
:104CDC0065722E7368696674722E696F002C002FD2
:0A4CEC00766962726174696F6E00F0
:00000001FF
